:100B1700120B28120988120313120485120522806A
:010B2700F2DB
:080BCA005858585858585800BB
:100B2800120AB3120BDA120A5D120AC7E4FF020BAB
:010B3800F0CC
:10031300120BE08F08E50870030203E124FC60760A
:1003230024FC70030203C9240724F5500724FE604C
:10033300030203E1E531C3940740030203E1E50847
:1003430094034008E508940950021508E508D3947E
:1003530008400AE508940E500415081508E508B48A
:100363000E03E4F508E47F0AFEFDFCAB36AA35A9CB
:1003730034A833120090A804A905AA06AB07E4FC2D
:10038300FDFEEB2508F536EE3AF535ED39F534EC9F
:1003930038F533053122E531C3940740417FD87ED8
:1003A3003C7D707C00AB36AA35A934A8331201AD6D
:1003B30070057539018003753201E4F536F535F5BD
:1003C30034F533F53122E4F536F535F534F533F507
:0E03D300317BFF7A0B79CA7D017F021209EBA4
:0103E10022F9
:10098800120B67EF602C120BED8F08E508B44516C3
:10099800E4F537F539F532F53AF536F535F534F548
:1009A80033F531120AC7E508B44407E53760036335
:0209B8003AFF04
:0109BA00221A
:10048500E5376012E53A6007AF38120A2B800D1286
:100495000A9F8F388006E4F538120BD2C3742D9568
:1004A50038C3941E5004E53A6005E4FF120BF0C30F
:1004B500742D9538FFD3941E400AEF942D50057F77
:1004C50001120BF0C3742D9538FFD39414400BEF34
:1004D500D3941E50057F02120BF0C3742D9538FF7F
:1004E500D3940A400BEFD3941450057F03120BF0FD
:1004F500C3742D9538FFD39403400BEFD3940A5062
:10050500057F04120BF0C3742D9538FFD39400407A
:0D0515000BEFD3940350057F05120BF0226D
:10052200E537603DE538C3942D4005120A7480FE1C
:10053200E5396014120A747FD07E07120A8A120A01
:10054200C76337FFE4F53922E5326006120B81E416
:10055200F532C3742D9538FF120A44E5316051809B
:1005620037E539601E120ADB7FD07E07120A8AC382
:10057200742D9538FF120A447F021209536337FF24
:10058200E4F539E532600D120B817FE87E03120A31
:100592008AE4F532E531601585360D85350C8534F2
:1005A2000B85330AF50E7D017F020207E0120AC7AE
:0105B2002226
:06072D008C088D09AB07EA
:10073300D2B5C2B4C2B6E4FD74017E00A805088038
:1007430005C333CE33CED8F9FFEBF582EF558224C0
:10075300FF92B4D2B6C2B60DBD08DDE4FD74017ECE
:1007630000A805088005C333CE33CED8F9FFE508CA
:100773005EFEE5095F4E24FF92B4D2B6C2B60DBD4C
:0407830008DBC2B518
:01078700224F
:02082E00A90718
:10083000E4FDD2B5C2B4C2B6FB74017E00A80308C1
:100840008005C333CE33CED8F9FFE9F582EF558268
:1008500024FF92B4C2B6D2B60BBB08DDE4FBD2B61D
:10086000C2B630B40D7401A803088002C333D8FCAB
:0A08700042050BBB08E8C2B5AF0556
:01087A00225B
:080BD200E4FDFC7F8002072D09
:100A9F007F8112082EEFC4540F75F00AA4FEEF5495
:030AAF000F2EFF08
:010AB2002221
:100A2B00EF75F00A84C454F0FEEF75F00A84EE25DE
:090A3B00F0FD7C007F8002072D14
:0B0B8E00D2AFD2A8D288D2B8C2892210
:060BDA00120B8E020B3924
:0D0B6700E5296006E4F5297F01227F0022C8
:0D0B7400E5306006E4F5307F01227F0022AD
:030BEA00AF2F2208
:030BED00AF2B2209
:030003000201BE39
:1001BE00C0E0C0F0C083C082C0D075D000C000C007
:1001CE0001C002C003C004C005C006C007E52C7004
:1001DE000CFFFE120B997F01120BC1804CE52C64B3
:1001EE0001704C120BB88E2D8F2EE4FFFE120B9960
:1001FE00D3E52E94A6E52D942E4010E52E948EE593
:10020E002D94325006752C020202F8D3E52E948CF2
:10021E00E52D94264013E52E9474E52D942A50096D
:10022E00752C007530010202ED752C010202F8E505
:10023E002C640260030202F8120BB88E2D8F2EE48E
:10024E00FFFE120B99D3E52E9414E52D9402402C4B
:10025E00E52E94FCE52D94055022E52A1313135434
:10026E001F2425F8C000E6FFE52A5407FE7401A8F6
:10027E0006088002C333D8FCF45F8034D3E52E9495
:10028E0026E52D94064030E52E940EE52D940A5069
:10029E0026E52A131313541F2425F8C000E6FFE5A4
:1002AE002A5407FE7401A806088002C333D8FC4FF7
:1002BE00D000F6052A8006752A00752C01E52AC3A2
:1002CE0094204026E526F4B5250FE528F4B5270938
:1002DE0075290185252F85272B752A00752C00E49D
:1002EE00FF120BC1E4FFFE120B99D007D006D0050A
:1002FE00D004D003D002D001D000D0D0D082D08391
:05030E00D0F0D0E03248
:10063F0020202020202020202020202020202020AB
:10064F000050415353574F52443A2020202020202E
:10065F002000585858585858582020202020202023
:10066F0020200054686520433420626F6D6220683B
:10067F00617320006265656E20706C616E746564D5
:10068F002120202000434F554E54444F574E3A20BF
:10069F002020202020002D2D2D2D2D2D2D2D2D2DE9
:1006AF002D2D2D2D2D2D004552524F522120202022
:0806BF00202020202020200053
:060B4900C2A58F80D2A7B7
:080B4F007F027EC7DEFEDFFC21
:010B5700227B
:0A0BA400C2A6120B49C2A7020B4FB4
:100A0E00E4FCFD12090FE47B0AFAF9F812090FEB68
:030A1E002430FF82
:0A0A2100D2A6120B49C2A7020B4F28
:100AB3007F38120BA47F0C120BA47F06120BA47FAA
:040AC30001020BA47D
:100953008F08E508B4010C7BFF7A06793F7D017FA0
:1009630001801EE5087BFF7A06793F7D01B4020210
:10097300800D7F011209EB7BFF7A06793F7D017FB2
:05098300021209EB2245
:0F0B5800EDBF0104247F800224A7FF120BA4220B
:0A0BAE00AC03120B58AF04020A2139
:0609E5007BFF7D017F0194
:0609EB008B098A0A890B4A
:1009F100120B58E4FDAB09AA0AA90B8D827583007D
:0C0A010012000EFF6006120A210D80E9B1
:010A0D0022C6
:0B0788007F0A24FFFDE434FFFC7E002C
:080793008E108F118D828C8302
:10079B00E4751601F515F514F513F512C3E512956D
:1007AB0082E5836480F87480985021AB16AA15A952
:1007BB0014A813AE10AF11EE3395E0FDFC120090B0
:1007CB008F168E158D148C13051280D0AF16AE15A7
:0407DB00AD14AC139A
:0107DF0022F7
:0409BB008A0A8B0B0E
:1009BF00120B58850C0DE50DD394004018E50D1260
:1009CF000788A804A905AA06AB07AE0AAF0B120A3F
:0509DF000E150D80E182
:0109E40022F0
:1008C800120B58C3EA64809480400B7F2B120A21D4
:1008D8008A418B42800E7F2D120A21C3E49BF54288
:1008E800E49AF541853F40E540D394004018E5403F
:1008F800120788A804A905AA06AB07AE41AF4212A1
:060908000A0E154080E11B
:01090E0022C6
:100AC7007A0679501209E57BFF7A0679617D017F05
:040AD700020209EB23
:100ADB007A0679721209E57BFF7A0679837D017FAD
:040AEB00020209EB0F
:100A4400AC077BFF7A0679941209E7ECFB7A007510
:090A54000C027D0B7F010209BBBD
:100A74007BFF7A0679A51209E77BFF7A0679A57DC3
:060A8400017F020209EBF4
:0D0B81007BFF7A0679B67D017F020209EB49
:04087B008A458B46D9
:10087F00120B58854748E548D39400403BE5487F25
:10088F001012078AA804A905AA06AB07AE45AF4602
:10089F00E4FCFD12090FE47B10FAF9F812090FAF0F
:1008AF0003AE07EEC3940AEE5004243080022437BF
:0808BF00FF120A21154880BE5A
:0108C700220E
:1007E000120B58750F01C37407950EFFE50FD39FC9
:1007F00050097F58120A21050F80EB850E0FE50F77
:10080000D394004028E50F120788AB07AA06A90574
:10081000A804AF0DAE0CAD0BAC0A12011BE47B0AB1
:0D082000FAF9F812011B120A1D150F80D104
:01082D0022A8
:1006C700E4FF7590FFC2932097010F2096027F05E4
:1006D7002095027F092094027F0D7590FFC292201A
:1006E70097027F022096027F062095027F0A2094B8
:1006F700027F0E7590FFC2912097027F032096021A
:100707007F072095027F0B2094027F0F7590FFC211
:10071700902097027F042096027F082095027F0C85
:050727002094027F1088
:01072C0022AA
:100AEF00854A491206C78F4AE5496007E54A7003F0
:030AFF0085494BDB
:010B020022D0
:050BE000AF4BE4F54BF2
:010BE50022ED
:100B03000A1B00000BB805DC01F400C80117000242
:030B1300180000C7
:100A5D005389F0438901C28D758A66758CFCD28CE1
:070A6D00D2AFD2A9C2B922E9
:03000B000203E20B
:1003E200C0E0C0F0C083C082C0D075D000C000C0E1
:0D03F20001C002C003C004C005C006C00762
:1003FF000517758A66758CFCE517C3940A40067558
:10040F001700120AEFE51A7005120BE6804DE51A78
:10041F00B4050512000680430519E5197002051889
:10042F00E51A25E0241BF8E6FE08E6FFEEC313FEEF
:10043F00EF13FFC3E5199FE5189E500512000680C4
:10044F0003120BE6AE18AF19E51A25E0241BF8E6E8
:0B045F00FC08E6FD12003B8C188D1914
:10046A00D007D006D005D004D003D002D001D000E6
:0B047A00D0D0D082D083D0F0D0E03290
:030BF0008F1A2237
:100B390053890F438910C28FE4F58DF58BC28E223C
:0B0B9900AD07AC068C8DAF058F8B22E2
:090BB800AF8DEFFEAD8BEDFF22C5
:090BC100BF0103D28E22C28E2274
:100A8A00EF1FAC0670011E4C600A7D027CC7DCFEBB
:040A9A00DDFC80EC13
:010A9E002235
:030BF300B2A52286
:0400060053A0F022F1
:040BE60043A00F22F7
:030000000205B343
:0C05B300787FE4F6D8FD75814B0205FA54
:10000E00BB010CE58229F582E5833AF583E02250A7
:10001E0006E92582F8E622BBFE06E92582F8E222F1
:0D002E00E58229F582E5833AF583E493220B
:10003B00BC000BBE0029EF8DF084FFADF022E4CCA9
:10004B00F875F008EF2FFFEE33FEEC33FCEE9DEC72
:10005B00984005FCEE9DFE0FD5F0E9E4CEFD22EDB8
:10006B00F8F5F0EE8420D21CFEADF075F008EF2F02
:10007B00FFED33FD4007985006D5F0F222C398FDF3
:05008B000FD5F0EA2290
:10009000E88FF0A4CC8BF0A42CFCE98EF0A42CFC0F
:1000A0008AF0EDA42CFCEA8EF0A4CDA8F08BF0A48D
:1000B0002DCC3825F0FDE98FF0A42CCD35F0FCEBEC
:1000C0008EF0A4FEA9F0EB8FF0A4CFC5F02ECD39B1
:0F00D000FEE43CFCEAA42DCE35F0FDE43CFC221E
:1000DF0075F008758200EF2FFFEE33FECD33CDCCD8
:1000EF0033CCC58233C5829BED9AEC99E58298405B
:1000FF000CF582EE9BFEED9AFDEC99FC0FD5F0D638
:10010F00E4CEFBE4CDFAE4CCF9A88222B800C1B961
:10011F000059BA002DEC8BF084CFCECDFCE5F0CB9F
:10012F00F97818EF2FFFEE33FEED33FDEC33FCEBD8
:10013F0033FB10D703994004EB99FB0FD8E5E4F993
:10014F00FA227818EF2FFFEE33FEED33FDEC33FC80
:10015F00C933C910D7059BE99A4007EC9BFCE99A74
:10016F00F90FD8E0E4C9FAE4CCFB2275F010EF2FB9
:10017F00FFEE33FEED33FDCC33CCC833C810D707B9
:10018F009BEC9AE899400AED9BFDEC9AFCE899F8F4
:0E019F000FD5F0DAE4CDFBE4CCFAE4C8F92287
:10090F00C2D5E830E70FB2D5E4C39BFBE49AFAE413
:10091F0099F9E498F8EC30E717B2D51209451201AE
:10092F001BE4C39BFBE49AFAE499F9E498F880037B
:10093F0012011B30D50DE4C39FFFE49EFEE49DFD25
:04094F00E49CFC2206
:1001AD00EB9FF5F0EA9E42F0E99D42F0E89C45F0A8
:0101BD00221F
:1005BF00020B17E493A3F8E493A34003F68001F230
:1005CF0008DFF48029E493A3F85407240CC8C3333D
:1005DF00C4540F4420C8834004F456800146F6DF0C
:1005EF00E4800B0102040810204080900B03E47E8E
:1005FF00019360BCA3FF543F30E509541FFEE49301
:10060F00A360010ECF54C025E060A840B8E493A3C7
:10061F00FAE493A3F8E493A3C8C582C8CAC583CAF2
:10062F00F0A3C8C582C8CAC583CADFE9DEE780BEAA
:010B160000DE
:00000001FF
